{
  "_format": "hh-sol-artifact-1",
  "contractName": "Songcrew",
  "sourceName": "contracts/Songcrew.sol",
  "abi": [
    {
      "inputs": [],
      "stateMutability": "nonpayable",
      "type": "constructor"
    },
    {
      "inputs": [
        {
          "internalType": "address",
          "name": "sender",
          "type": "address"
        },
        {
          "internalType": "uint256",
          "name": "balance",
          "type": "uint256"
        },
        {
          "internalType": "uint256",
          "name": "needed",
          "type": "uint256"
        },
        {
          "internalType": "uint256",
          "name": "tokenId",
          "type": "uint256"
        }
      ],
      "name": "ERC1155InsufficientBalance",
      "type": "error"
    },
    {
      "inputs": [
        {
          "internalType": "address",
          "name": "approver",
          "type": "address"
        }
      ],
      "name": "ERC1155InvalidApprover",
      "type": "error"
    },
    {
      "inputs": [
        {
          "internalType": "uint256",
          "name": "idsLength",
          "type": "uint256"
        },
        {
          "internalType": "uint256",
          "name": "valuesLength",
          "type": "uint256"
        }
      ],
      "name": "ERC1155InvalidArrayLength",
      "type": "error"
    },
    {
      "inputs": [
        {
          "internalType": "address",
          "name": "operator",
          "type": "address"
        }
      ],
      "name": "ERC1155InvalidOperator",
      "type": "error"
    },
    {
      "inputs": [
        {
          "internalType": "address",
          "name": "receiver",
          "type": "address"
        }
      ],
      "name": "ERC1155InvalidReceiver",
      "type": "error"
    },
    {
      "inputs": [
        {
          "internalType": "address",
          "name": "sender",
          "type": "address"
        }
      ],
      "name": "ERC1155InvalidSender",
      "type": "error"
    },
    {
      "inputs": [
        {
          "internalType": "address",
          "name": "operator",
          "type": "address"
        },
        {
          "internalType": "address",
          "name": "owner",
          "type": "address"
        }
      ],
      "name": "ERC1155MissingApprovalForAll",
      "type": "error"
    },
    {
      "inputs": [],
      "name": "ReentrancyGuardReentrantCall",
      "type": "error"
    },
    {
      "anonymous": false,
      "inputs": [
        {
          "indexed": true,
          "internalType": "address",
          "name": "account",
          "type": "address"
        },
        {
          "indexed": true,
          "internalType": "address",
          "name": "operator",
          "type": "address"
        },
        {
          "indexed": false,
          "internalType": "bool",
          "name": "approved",
          "type": "bool"
        }
      ],
      "name": "ApprovalForAll",
      "type": "event"
    },
    {
      "anonymous": false,
      "inputs": [
        {
          "indexed": false,
          "internalType": "address",
          "name": "buyer",
          "type": "address"
        },
        {
          "indexed": false,
          "internalType": "uint256",
          "name": "projectId",
          "type": "uint256"
        },
        {
          "indexed": false,
          "internalType": "uint256",
          "name": "amount",
          "type": "uint256"
        }
      ],
      "name": "InvestorsAndArtistBought",
      "type": "event"
    },
    {
      "anonymous": false,
      "inputs": [
        {
          "indexed": false,
          "internalType": "address",
          "name": "buyer",
          "type": "address"
        },
        {
          "indexed": false,
          "internalType": "uint256",
          "name": "projectId",
          "type": "uint256"
        },
        {
          "indexed": false,
          "internalType": "uint256",
          "name": "amount",
          "type": "uint256"
        }
      ],
      "name": "ProjectBought",
      "type": "event"
    },
    {
      "anonymous": false,
      "inputs": [
        {
          "indexed": false,
          "internalType": "uint256",
          "name": "id",
          "type": "uint256"
        },
        {
          "indexed": false,
          "internalType": "address",
          "name": "addressArtist",
          "type": "address"
        },
        {
          "indexed": false,
          "internalType": "string",
          "name": "artist",
          "type": "string"
        },
        {
          "indexed": false,
          "internalType": "string",
          "name": "idSACEM",
          "type": "string"
        },
        {
          "indexed": false,
          "internalType": "string",
          "name": "title",
          "type": "string"
        },
        {
          "indexed": false,
          "internalType": "string",
          "name": "genre",
          "type": "string"
        },
        {
          "indexed": false,
          "internalType": "string",
          "name": "description",
          "type": "string"
        },
        {
          "indexed": false,
          "internalType": "uint256",
          "name": "priceProject",
          "type": "uint256"
        },
        {
          "indexed": false,
          "internalType": "uint256",
          "name": "numberOfCopies",
          "type": "uint256"
        },
        {
          "indexed": false,
          "internalType": "uint256",
          "name": "priceNft",
          "type": "uint256"
        }
      ],
      "name": "ProjectCreated",
      "type": "event"
    },
    {
      "anonymous": false,
      "inputs": [
        {
          "indexed": true,
          "internalType": "address",
          "name": "operator",
          "type": "address"
        },
        {
          "indexed": true,
          "internalType": "address",
          "name": "from",
          "type": "address"
        },
        {
          "indexed": true,
          "internalType": "address",
          "name": "to",
          "type": "address"
        },
        {
          "indexed": false,
          "internalType": "uint256[]",
          "name": "ids",
          "type": "uint256[]"
        },
        {
          "indexed": false,
          "internalType": "uint256[]",
          "name": "values",
          "type": "uint256[]"
        }
      ],
      "name": "TransferBatch",
      "type": "event"
    },
    {
      "anonymous": false,
      "inputs": [
        {
          "indexed": true,
          "internalType": "address",
          "name": "operator",
          "type": "address"
        },
        {
          "indexed": true,
          "internalType": "address",
          "name": "from",
          "type": "address"
        },
        {
          "indexed": true,
          "internalType": "address",
          "name": "to",
          "type": "address"
        },
        {
          "indexed": false,
          "internalType": "uint256",
          "name": "id",
          "type": "uint256"
        },
        {
          "indexed": false,
          "internalType": "uint256",
          "name": "value",
          "type": "uint256"
        }
      ],
      "name": "TransferSingle",
      "type": "event"
    },
    {
      "anonymous": false,
      "inputs": [
        {
          "indexed": false,
          "internalType": "string",
          "name": "value",
          "type": "string"
        },
        {
          "indexed": true,
          "internalType": "uint256",
          "name": "id",
          "type": "uint256"
        }
      ],
      "name": "URI",
      "type": "event"
    },
    {
      "inputs": [
        {
          "internalType": "address",
          "name": "account",
          "type": "address"
        },
        {
          "internalType": "uint256",
          "name": "id",
          "type": "uint256"
        }
      ],
      "name": "balanceOf",
      "outputs": [
        {
          "internalType": "uint256",
          "name": "",
          "type": "uint256"
        }
      ],
      "stateMutability": "view",
      "type": "function"
    },
    {
      "inputs": [
        {
          "internalType": "address[]",
          "name": "accounts",
          "type": "address[]"
        },
        {
          "internalType": "uint256[]",
          "name": "ids",
          "type": "uint256[]"
        }
      ],
      "name": "balanceOfBatch",
      "outputs": [
        {
          "internalType": "uint256[]",
          "name": "",
          "type": "uint256[]"
        }
      ],
      "stateMutability": "view",
      "type": "function"
    },
    {
      "inputs": [
        {
          "internalType": "uint256",
          "name": "_id",
          "type": "uint256"
        },
        {
          "internalType": "uint256",
          "name": "_amount",
          "type": "uint256"
        }
      ],
      "name": "buyNft",
      "outputs": [],
      "stateMutability": "payable",
      "type": "function"
    },
    {
      "inputs": [
        {
          "internalType": "string",
          "name": "_artist",
          "type": "string"
        },
        {
          "internalType": "string",
          "name": "_idSACEM",
          "type": "string"
        },
        {
          "internalType": "string",
          "name": "_title",
          "type": "string"
        },
        {
          "internalType": "string",
          "name": "_genre",
          "type": "string"
        },
        {
          "internalType": "string",
          "name": "_description",
          "type": "string"
        },
        {
          "internalType": "uint256",
          "name": "_priceProject",
          "type": "uint256"
        },
        {
          "internalType": "uint256",
          "name": "_numberOfCopies",
          "type": "uint256"
        }
      ],
      "name": "createProject",
      "outputs": [],
      "stateMutability": "nonpayable",
      "type": "function"
    },
    {
      "inputs": [],
      "name": "getAllProjects",
      "outputs": [
        {
          "components": [
            {
              "internalType": "uint256",
              "name": "id",
              "type": "uint256"
            },
            {
              "internalType": "address",
              "name": "addressArtist",
              "type": "address"
            },
            {
              "internalType": "string",
              "name": "artist",
              "type": "string"
            },
            {
              "internalType": "string",
              "name": "idSACEM",
              "type": "string"
            },
            {
              "internalType": "string",
              "name": "title",
              "type": "string"
            },
            {
              "internalType": "string",
              "name": "genre",
              "type": "string"
            },
            {
              "internalType": "string",
              "name": "description",
              "type": "string"
            },
            {
              "internalType": "uint256",
              "name": "priceProject",
              "type": "uint256"
            },
            {
              "internalType": "uint256",
              "name": "numberOfCopies",
              "type": "uint256"
            },
            {
              "internalType": "uint256",
              "name": "priceNft",
              "type": "uint256"
            }
          ],
          "internalType": "struct Songcrew.Project[]",
          "name": "",
          "type": "tuple[]"
        }
      ],
      "stateMutability": "view",
      "type": "function"
    },
    {
      "inputs": [],
      "name": "getBalanceOfAllProjectsForTheSender",
      "outputs": [
        {
          "internalType": "uint256[]",
          "name": "",
          "type": "uint256[]"
        }
      ],
      "stateMutability": "view",
      "type": "function"
    },
    {
      "inputs": [
        {
          "internalType": "uint256",
          "name": "_id",
          "type": "uint256"
        }
      ],
      "name": "getOneProject",
      "outputs": [
        {
          "components": [
            {
              "internalType": "uint256",
              "name": "id",
              "type": "uint256"
            },
            {
              "internalType": "address",
              "name": "addressArtist",
              "type": "address"
            },
            {
              "internalType": "string",
              "name": "artist",
              "type": "string"
            },
            {
              "internalType": "string",
              "name": "idSACEM",
              "type": "string"
            },
            {
              "internalType": "string",
              "name": "title",
              "type": "string"
            },
            {
              "internalType": "string",
              "name": "genre",
              "type": "string"
            },
            {
              "internalType": "string",
              "name": "description",
              "type": "string"
            },
            {
              "internalType": "uint256",
              "name": "priceProject",
              "type": "uint256"
            },
            {
              "internalType": "uint256",
              "name": "numberOfCopies",
              "type": "uint256"
            },
            {
              "internalType": "uint256",
              "name": "priceNft",
              "type": "uint256"
            }
          ],
          "internalType": "struct Songcrew.Project",
          "name": "",
          "type": "tuple"
        }
      ],
      "stateMutability": "view",
      "type": "function"
    },
    {
      "inputs": [
        {
          "internalType": "address",
          "name": "account",
          "type": "address"
        },
        {
          "internalType": "address",
          "name": "operator",
          "type": "address"
        }
      ],
      "name": "isApprovedForAll",
      "outputs": [
        {
          "internalType": "bool",
          "name": "",
          "type": "bool"
        }
      ],
      "stateMutability": "view",
      "type": "function"
    },
    {
      "inputs": [
        {
          "internalType": "string",
          "name": "_idSACEM",
          "type": "string"
        }
      ],
      "name": "payInvestors",
      "outputs": [],
      "stateMutability": "payable",
      "type": "function"
    },
    {
      "inputs": [
        {
          "internalType": "address",
          "name": "from",
          "type": "address"
        },
        {
          "internalType": "address",
          "name": "to",
          "type": "address"
        },
        {
          "internalType": "uint256[]",
          "name": "ids",
          "type": "uint256[]"
        },
        {
          "internalType": "uint256[]",
          "name": "values",
          "type": "uint256[]"
        },
        {
          "internalType": "bytes",
          "name": "data",
          "type": "bytes"
        }
      ],
      "name": "safeBatchTransferFrom",
      "outputs": [],
      "stateMutability": "nonpayable",
      "type": "function"
    },
    {
      "inputs": [
        {
          "internalType": "address",
          "name": "from",
          "type": "address"
        },
        {
          "internalType": "address",
          "name": "to",
          "type": "address"
        },
        {
          "internalType": "uint256",
          "name": "id",
          "type": "uint256"
        },
        {
          "internalType": "uint256",
          "name": "value",
          "type": "uint256"
        },
        {
          "internalType": "bytes",
          "name": "data",
          "type": "bytes"
        }
      ],
      "name": "safeTransferFrom",
      "outputs": [],
      "stateMutability": "nonpayable",
      "type": "function"
    },
    {
      "inputs": [
        {
          "internalType": "address",
          "name": "operator",
          "type": "address"
        },
        {
          "internalType": "bool",
          "name": "approved",
          "type": "bool"
        }
      ],
      "name": "setApprovalForAll",
      "outputs": [],
      "stateMutability": "nonpayable",
      "type": "function"
    },
    {
      "inputs": [
        {
          "internalType": "bytes4",
          "name": "interfaceId",
          "type": "bytes4"
        }
      ],
      "name": "supportsInterface",
      "outputs": [
        {
          "internalType": "bool",
          "name": "",
          "type": "bool"
        }
      ],
      "stateMutability": "view",
      "type": "function"
    },
    {
      "inputs": [
        {
          "internalType": "uint256",
          "name": "",
          "type": "uint256"
        }
      ],
      "name": "uri",
      "outputs": [
        {
          "internalType": "string",
          "name": "",
          "type": "string"
        }
      ],
      "stateMutability": "view",
      "type": "function"
    }
  ],
  "bytecode": "0x60806040523480156200001157600080fd5b506040518060600160405280602a815260200162004ff9602a91396200003d816200004c60201b60201c565b506001600381905550620003c2565b80600290816200005d9190620002db565b5050565b600081519050919050565b7f4e487b7100000000000000000000000000000000000000000000000000000000600052604160045260246000fd5b7f4e487b7100000000000000000000000000000000000000000000000000000000600052602260045260246000fd5b60006002820490506001821680620000e357607f821691505b602082108103620000f957620000f86200009b565b5b50919050565b60008190508160005260206000209050919050565b60006020601f8301049050919050565b600082821b905092915050565b600060088302620001637fffffffffffffffffffffffffffffffffffffffffffffffffffffffffffffffff8262000124565b6200016f868362000124565b95508019841693508086168417925050509392505050565b6000819050919050565b6000819050919050565b6000620001bc620001b6620001b08462000187565b62000191565b62000187565b9050919050565b6000819050919050565b620001d8836200019b565b620001f0620001e782620001c3565b84845462000131565b825550505050565b600090565b62000207620001f8565b62000214818484620001cd565b505050565b5b818110156200023c5762000230600082620001fd565b6001810190506200021a565b5050565b601f8211156200028b576200025581620000ff565b620002608462000114565b8101602085101562000270578190505b620002886200027f8562000114565b83018262000219565b50505b505050565b600082821c905092915050565b6000620002b06000198460080262000290565b1980831691505092915050565b6000620002cb83836200029d565b9150826002028217905092915050565b620002e68262000061565b67ffffffffffffffff8111156200030257620003016200006c565b5b6200030e8254620000ca565b6200031b82828562000240565b600060209050601f8311600181146200035357600084156200033e578287015190505b6200034a8582620002bd565b865550620003ba565b601f1984166200036386620000ff565b60005b828110156200038d5784890151825560018201915060208501945060208101905062000366565b86831015620003ad5784890151620003a9601f8916826200029d565b8355505b6001600288020188555050505b505050505050565b614c2780620003d26000396000f3fe6080604052600436106100dc5760003560e01c806380d038291161007f578063a7ee42de11610059578063a7ee42de146102b5578063a98f7240146102de578063e985e9c51461031b578063f242432a14610358576100dc565b806380d038291461023657806386ae9e6c14610261578063a22cb4651461028c576100dc565b80632eb2c2d6116100bb5780632eb2c2d6146101985780634e1273f4146101c1578063556f8084146101fe5780637ff36ca71461021a576100dc565b8062fdd58e146100e157806301ffc9a71461011e5780630e89341c1461015b575b600080fd5b3480156100ed57600080fd5b5061010860048036038101906101039190612f1e565b610381565b6040516101159190612f6d565b60405180910390f35b34801561012a57600080fd5b5061014560048036038101906101409190612fe0565b6103db565b6040516101529190613028565b60405180910390f35b34801561016757600080fd5b50610182600480360381019061017d9190613043565b6103ed565b60405161018f9190613100565b60405180910390f35b3480156101a457600080fd5b506101bf60048036038101906101ba919061331f565b610481565b005b3480156101cd57600080fd5b506101e860048036038101906101e391906134b1565b610529565b6040516101f591906135e7565b60405180910390f35b61021860048036038101906102139190613609565b610632565b005b610234600480360381019061022f91906136ea565b610a91565b005b34801561024257600080fd5b5061024b611274565b6040516102589190613944565b60405180910390f35b34801561026d57600080fd5b5061027661162c565b60405161028391906135e7565b60405180910390f35b34801561029857600080fd5b506102b360048036038101906102ae9190613992565b611775565b005b3480156102c157600080fd5b506102dc60048036038101906102d791906139d2565b61178b565b005b3480156102ea57600080fd5b5061030560048036038101906103009190613043565b611b72565b6040516103129190613bf6565b60405180910390f35b34801561032757600080fd5b50610342600480360381019061033d9190613c18565b611f07565b60405161034f9190613028565b60405180910390f35b34801561036457600080fd5b5061037f600480360381019061037a9190613c58565b611f9b565b005b600080600083815260200190815260200160002060008473ffffffffffffffffffffffffffffffffffffffff1673ffffffffffffffffffffffffffffffffffffffff16815260200190815260200160002054905092915050565b60006103e682612043565b9050919050565b6060600280546103fc90613d1e565b80601f016020809104026020016040519081016040528092919081815260200182805461042890613d1e565b80156104755780601f1061044a57610100808354040283529160200191610475565b820191906000526020600020905b81548152906001019060200180831161045857829003601f168201915b50505050509050919050565b600061048b612125565b90508073ffffffffffffffffffffffffffffffffffffffff168673ffffffffffffffffffffffffffffffffffffffff16141580156104d057506104ce8682611f07565b155b156105145780866040517fe237d92200000000000000000000000000000000000000000000000000000000815260040161050b929190613d5e565b60405180910390fd5b610521868686868661212d565b505050505050565b6060815183511461057557815183516040517f5b05999100000000000000000000000000000000000000000000000000000000815260040161056c929190613d87565b60405180910390fd5b6000835167ffffffffffffffff81111561059257610591613127565b5b6040519080825280602002602001820160405280156105c05781602001602082028036833780820191505090505b50905060005b8451811015610627576105fd6105e5828761222590919063ffffffff16565b6105f8838761223990919063ffffffff16565b610381565b8282815181106106105761060f613db0565b5b6020026020010181815250508060010190506105c6565b508091505092915050565b61063a61224d565b6005805490508210610681576040517f08c379a000000000000000000000000000000000000000000000000000000000815260040161067890613e2b565b60405180910390fd5b600081116106c4576040517f08c379a00000000000000000000000000000000000000000000000000000000081526004016106bb90613ebd565b60405180910390fd5b600582815481106106d8576106d7613db0565b5b90600052602060002090600a02016008015481111561072c576040517f08c379a000000000000000000000000000000000000000000000000000000000815260040161072390613f75565b60405180910390fd5b806005838154811061074157610740613db0565b5b90600052602060002090600a02016009015461075d9190613fc4565b34101561079f576040517f08c379a000000000000000000000000000000000000000000000000000000000815260040161079690614052565b60405180910390fd5b80600583815481106107b4576107b3613db0565b5b90600052602060002090600a020160080160008282546107d49190614072565b9250508190555061082c600583815481106107f2576107f1613db0565b5b90600052602060002090600a020160010160009054906101000a900473ffffffffffffffffffffffffffffffffffffffff16336001612293565b60006005838154811061084257610841613db0565b5b90600052602060002090600a020160010160009054906101000a900473ffffffffffffffffffffffffffffffffffffffff16905060008173ffffffffffffffffffffffffffffffffffffffff163460405161089c906140d7565b60006040518083038185875af1925050503d80600081146108d9576040519150601f19603f3d011682016040523d82523d6000602084013e6108de565b606091505b5050905080610922576040517f08c379a000000000000000000000000000000000000000000000000000000000815260040161091990614138565b60405180910390fd5b6109836005858154811061093957610938613db0565b5b90600052602060002090600a020160010160009054906101000a900473ffffffffffffffffffffffffffffffffffffffff1633868660405180602001604052806000815250611f9b565b6109d46005858154811061099a57610999613db0565b5b90600052602060002090600a020160010160009054906101000a900473ffffffffffffffffffffffffffffffffffffffff16336000612293565b60066000858152602001908152602001600020339080600181540180825580915050600190039060005260206000200160009091909190916101000a81548173ffffffffffffffffffffffffffffffffffffffff021916908373ffffffffffffffffffffffffffffffffffffffff1602179055507fd2bbeda25b78c0949d91aab0e9c569d5fcff7fdae5b6ee5f76f4b92162631336338585604051610a7b93929190614158565b60405180910390a15050610a8d612403565b5050565b610a9961224d565b60003411610adc576040517f08c379a0000000000000000000000000000000000000000000000000000000008152600401610ad390614052565b60405180910390fd5b610ae4612e0d565b60005b600580549050811015610f015782604051602001610b0591906141cb565b6040516020818303038152906040528051906020012060058281548110610b2f57610b2e613db0565b5b90600052602060002090600a0201600301604051602001610b50919061427a565b6040516020818303038152906040528051906020012003610ef45760058181548110610b7f57610b7e613db0565b5b90600052602060002090600a020160405180610140016040529081600082015481526020016001820160009054906101000a900473ffffffffffffffffffffffffffffffffffffffff1673ffffffffffffffffffffffffffffffffffffffff1673ffffffffffffffffffffffffffffffffffffffff168152602001600282018054610c0990613d1e565b80601f0160208091040260200160405190810160405280929190818152602001828054610c3590613d1e565b8015610c825780601f10610c5757610100808354040283529160200191610c82565b820191906000526020600020905b815481529060010190602001808311610c6557829003601f168201915b50505050508152602001600382018054610c9b90613d1e565b80601f0160208091040260200160405190810160405280929190818152602001828054610cc790613d1e565b8015610d145780601f10610ce957610100808354040283529160200191610d14565b820191906000526020600020905b815481529060010190602001808311610cf757829003601f168201915b50505050508152602001600482018054610d2d90613d1e565b80601f0160208091040260200160405190810160405280929190818152602001828054610d5990613d1e565b8015610da65780601f10610d7b57610100808354040283529160200191610da6565b820191906000526020600020905b815481529060010190602001808311610d8957829003601f168201915b50505050508152602001600582018054610dbf90613d1e565b80601f0160208091040260200160405190810160405280929190818152602001828054610deb90613d1e565b8015610e385780601f10610e0d57610100808354040283529160200191610e38565b820191906000526020600020905b815481529060010190602001808311610e1b57829003601f168201915b50505050508152602001600682018054610e5190613d1e565b80601f0160208091040260200160405190810160405280929190818152602001828054610e7d90613d1e565b8015610eca5780601f10610e9f57610100808354040283529160200191610eca565b820191906000526020600020905b815481529060010190602001808311610ead57829003601f168201915b50505050508152602001600782015481526020016008820154815260200160098201548152505091505b8080600101915050610ae7565b5081604051602001610f1391906141cb565b604051602081830303815290604052805190602001208160600151604051602001610f3e91906141cb565b6040516020818303038152906040528051906020012014610f94576040517f08c379a0000000000000000000000000000000000000000000000000000000008152600401610f8b90613e2b565b60405180910390fd5b6000600660008360000151815260200190815260200160002080548060200260200160405190810160405280929190818152602001828054801561102d57602002820191906000526020600020905b8160009054906101000a900473ffffffffffffffffffffffffffffffffffffffff1673ffffffffffffffffffffffffffffffffffffffff1681526020019060010190808311610fe3575b5050505050905060006064905060005b825181101561115857600083828151811061105b5761105a613db0565b5b602002602001015190506000611075828760000151610381565b905080846110839190614072565b935060008273ffffffffffffffffffffffffffffffffffffffff16826064346110ac91906142c0565b6110b69190613fc4565b6040516110c2906140d7565b60006040518083038185875af1925050503d80600081146110ff576040519150601f19603f3d011682016040523d82523d6000602084013e611104565b606091505b5050905080611148576040517f08c379a000000000000000000000000000000000000000000000000000000000815260040161113f90614138565b60405180910390fd5b505050808060010191505061103d565b5060008360200151905060008173ffffffffffffffffffffffffffffffffffffffff168360643461118991906142c0565b6111939190613fc4565b60405161119f906140d7565b60006040518083038185875af1925050503d80600081146111dc576040519150601f19603f3d011682016040523d82523d6000602084013e6111e1565b606091505b5050905080611225576040517f08c379a000000000000000000000000000000000000000000000000000000000815260040161121c90614138565b60405180910390fd5b7f1e2ef89d64ffeede91649d5e570de106b07eed4aef0bd2f3b5901a890b93b9513386600001513460405161125c93929190614158565b60405180910390a15050505050611271612403565b50565b60606005805480602002602001604051908101604052809291908181526020016000905b8282101561162357838290600052602060002090600a020160405180610140016040529081600082015481526020016001820160009054906101000a900473ffffffffffffffffffffffffffffffffffffffff1673ffffffffffffffffffffffffffffffffffffffff1673ffffffffffffffffffffffffffffffffffffffff16815260200160028201805461132c90613d1e565b80601f016020809104026020016040519081016040528092919081815260200182805461135890613d1e565b80156113a55780601f1061137a576101008083540402835291602001916113a5565b820191906000526020600020905b81548152906001019060200180831161138857829003601f168201915b505050505081526020016003820180546113be90613d1e565b80601f01602080910402602001604051908101604052809291908181526020018280546113ea90613d1e565b80156114375780601f1061140c57610100808354040283529160200191611437565b820191906000526020600020905b81548152906001019060200180831161141a57829003601f168201915b5050505050815260200160048201805461145090613d1e565b80601f016020809104026020016040519081016040528092919081815260200182805461147c90613d1e565b80156114c95780601f1061149e576101008083540402835291602001916114c9565b820191906000526020600020905b8154815290600101906020018083116114ac57829003601f168201915b505050505081526020016005820180546114e290613d1e565b80601f016020809104026020016040519081016040528092919081815260200182805461150e90613d1e565b801561155b5780601f106115305761010080835404028352916020019161155b565b820191906000526020600020905b81548152906001019060200180831161153e57829003601f168201915b5050505050815260200160068201805461157490613d1e565b80601f01602080910402602001604051908101604052809291908181526020018280546115a090613d1e565b80156115ed5780601f106115c2576101008083540402835291602001916115ed565b820191906000526020600020905b8154815290600101906020018083116115d057829003601f168201915b50505050508152602001600782015481526020016008820154815260200160098201548152505081526020019060010190611298565b50505050905090565b6060600060058054905067ffffffffffffffff81111561164f5761164e613127565b5b60405190808252806020026020018201604052801561167d5781602001602082028036833780820191505090505b509050600060058054905067ffffffffffffffff8111156116a1576116a0613127565b5b6040519080825280602002602001820160405280156116cf5781602001602082028036833780820191505090505b50905060005b60058054905081101561175d57808382815181106116f6576116f5613db0565b5b6020026020010181815250503382828151811061171657611715613db0565b5b602002602001019073ffffffffffffffffffffffffffffffffffffffff16908173ffffffffffffffffffffffffffffffffffffffff168152505080806001019150506116d5565b50600061176a8284610529565b905080935050505090565b611787611780612125565b8383612293565b5050565b600073ffffffffffffffffffffffffffffffffffffffff163373ffffffffffffffffffffffffffffffffffffffff16036117fa576040517f08c379a00000000000000000000000000000000000000000000000000000000081526004016117f190614363565b60405180910390fd5b6000811161183d576040517f08c379a0000000000000000000000000000000000000000000000000000000008152600401611834906143f5565b60405180910390fd5b6046811115611881576040517f08c379a000000000000000000000000000000000000000000000000000000000815260040161187890614487565b60405180910390fd5b600082116118c4576040517f08c379a00000000000000000000000000000000000000000000000000000000081526004016118bb90614519565b60405180910390fd5b6010821115611908576040517f08c379a00000000000000000000000000000000000000000000000000000000081526004016118ff906145ab565b60405180910390fd5b6103e860058054905010611951576040517f08c379a00000000000000000000000000000000000000000000000000000000081526004016119489061463d565b60405180910390fd5b60006004549050670de0b6b3a76400008361196c9190613fc4565b925060056040518061014001604052808381526020013373ffffffffffffffffffffffffffffffffffffffff1681526020018a815260200189815260200188815260200187815260200186815260200185815260200184815260200184866119d491906142c0565b81525090806001815401808255809150506001900390600052602060002090600a02016000909190919091506000820151816000015560208201518160010160006101000a81548173ffffffffffffffffffffffffffffffffffffffff021916908373ffffffffffffffffffffffffffffffffffffffff1602179055506040820151816002019081611a6691906147f4565b506060820151816003019081611a7c91906147f4565b506080820151816004019081611a9291906147f4565b5060a0820151816005019081611aa891906147f4565b5060c0820151816006019081611abe91906147f4565b5060e08201518160070155610100820151816008015561012082015181600901555050611afc3382846040518060200160405280600081525061240d565b7f4ac4b7dd75407c9fd0edb6c3371deec188d2506f3bbb0f633f90a1615fe2f3f781338a8a8a8a8a8a8a8b8d611b3291906142c0565b604051611b489a999897969594939291906148c6565b60405180910390a160046000815480929190611b6390614985565b91905055505050505050505050565b611b7a612e0d565b60058281548110611b8e57611b8d613db0565b5b90600052602060002090600a020160405180610140016040529081600082015481526020016001820160009054906101000a900473ffffffffffffffffffffffffffffffffffffffff1673ffffffffffffffffffffffffffffffffffffffff1673ffffffffffffffffffffffffffffffffffffffff168152602001600282018054611c1890613d1e565b80601f0160208091040260200160405190810160405280929190818152602001828054611c4490613d1e565b8015611c915780601f10611c6657610100808354040283529160200191611c91565b820191906000526020600020905b815481529060010190602001808311611c7457829003601f168201915b50505050508152602001600382018054611caa90613d1e565b80601f0160208091040260200160405190810160405280929190818152602001828054611cd690613d1e565b8015611d235780601f10611cf857610100808354040283529160200191611d23565b820191906000526020600020905b815481529060010190602001808311611d0657829003601f168201915b50505050508152602001600482018054611d3c90613d1e565b80601f0160208091040260200160405190810160405280929190818152602001828054611d6890613d1e565b8015611db55780601f10611d8a57610100808354040283529160200191611db5565b820191906000526020600020905b815481529060010190602001808311611d9857829003601f168201915b50505050508152602001600582018054611dce90613d1e565b80601f0160208091040260200160405190810160405280929190818152602001828054611dfa90613d1e565b8015611e475780601f10611e1c57610100808354040283529160200191611e47565b820191906000526020600020905b815481529060010190602001808311611e2a57829003601f168201915b50505050508152602001600682018054611e6090613d1e565b80601f0160208091040260200160405190810160405280929190818152602001828054611e8c90613d1e565b8015611ed95780601f10611eae57610100808354040283529160200191611ed9565b820191906000526020600020905b815481529060010190602001808311611ebc57829003601f168201915b5050505050815260200160078201548152602001600882015481526020016009820154815250509050919050565b6000600160008473ffffffffffffffffffffffffffffffffffffffff1673ffffffffffffffffffffffffffffffffffffffff16815260200190815260200160002060008373ffffffffffffffffffffffffffffffffffffffff1673ffffffffffffffffffffffffffffffffffffffff16815260200190815260200160002060009054906101000a900460ff16905092915050565b6000611fa5612125565b90508073ffffffffffffffffffffffffffffffffffffffff168673ffffffffffffffffffffffffffffffffffffffff1614158015611fea5750611fe88682611f07565b155b1561202e5780866040517fe237d922000000000000000000000000000000000000000000000000000000008152600401612025929190613d5e565b60405180910390fd5b61203b86868686866124a6565b505050505050565b60007fd9b67a26000000000000000000000000000000000000000000000000000000007bffffffffffffffffffffffffffffffffffffffffffffffffffffffff1916827bffffffffffffffffffffffffffffffffffffffffffffffffffffffff1916148061210e57507f0e89341c000000000000000000000000000000000000000000000000000000007bffffffffffffffffffffffffffffffffffffffffffffffffffffffff1916827bffffffffffffffffffffffffffffffffffffffffffffffffffffffff1916145b8061211e575061211d826125b1565b5b9050919050565b600033905090565b600073ffffffffffffffffffffffffffffffffffffffff168473ffffffffffffffffffffffffffffffffffffffff160361219f5760006040517f57f447ce00000000000000000000000000000000000000000000000000000000815260040161219691906149cd565b60405180910390fd5b600073ffffffffffffffffffffffffffffffffffffffff168573ffffffffffffffffffffffffffffffffffffffff16036122115760006040517f01a8351400000000000000000000000000000000000000000000000000000000815260040161220891906149cd565b60405180910390fd5b61221e858585858561261b565b5050505050565b600060208202602084010151905092915050565b600060208202602084010151905092915050565b600260035403612289576040517f3ee5aeb500000000000000000000000000000000000000000000000000000000815260040160405180910390fd5b6002600381905550565b600073ffffffffffffffffffffffffffffffffffffffff168273ffffffffffffffffffffffffffffffffffffffff16036123055760006040517fced3e1000000000000000000000000000000000000000000000000000000000081526004016122fc91906149cd565b60405180910390fd5b80600160008573ffffffffffffffffffffffffffffffffffffffff1673ffffffffffffffffffffffffffffffffffffffff16815260200190815260200160002060008473ffffffffffffffffffffffffffffffffffffffff1673ffffffffffffffffffffffffffffffffffffffff16815260200190815260200160002060006101000a81548160ff0219169083151502179055508173ffffffffffffffffffffffffffffffffffffffff168373ffffffffffffffffffffffffffffffffffffffff167f17307eab39ab6107e8899845ad3d59bd9653f200f220920489ca2b5937696c31836040516123f69190613028565b60405180910390a3505050565b6001600381905550565b600073ffffffffffffffffffffffffffffffffffffffff168473ffffffffffffffffffffffffffffffffffffffff160361247f5760006040517f57f447ce00000000000000000000000000000000000000000000000000000000815260040161247691906149cd565b60405180910390fd5b60008061248c85856126cd565b9150915061249e60008784848761261b565b505050505050565b600073ffffffffffffffffffffffffffffffffffffffff168473ffffffffffffffffffffffffffffffffffffffff16036125185760006040517f57f447ce00000000000000000000000000000000000000000000000000000000815260040161250f91906149cd565b60405180910390fd5b600073ffffffffffffffffffffffffffffffffffffffff168573ffffffffffffffffffffffffffffffffffffffff160361258a5760006040517f01a8351400000000000000000000000000000000000000000000000000000000815260040161258191906149cd565b60405180910390fd5b60008061259785856126cd565b915091506125a8878784848761261b565b50505050505050565b60007f01ffc9a7000000000000000000000000000000000000000000000000000000007bffffffffffffffffffffffffffffffffffffffffffffffffffffffff1916827bffffffffffffffffffffffffffffffffffffffffffffffffffffffff1916149050919050565b612627858585856126fd565b600073ffffffffffffffffffffffffffffffffffffffff168473ffffffffffffffffffffffffffffffffffffffff16146126c6576000612665612125565b905060018451036126b557600061268660008661223990919063ffffffff16565b9050600061269e60008661223990919063ffffffff16565b90506126ae838989858589612aa5565b50506126c4565b6126c3818787878787612c59565b5b505b5050505050565b60608060405191506001825283602083015260408201905060018152826020820152604081016040529250929050565b805182511461274757815181516040517f5b05999100000000000000000000000000000000000000000000000000000000815260040161273e929190613d87565b60405180910390fd5b6000612751612125565b905060005b8351811015612960576000612774828661223990919063ffffffff16565b9050600061278b838661223990919063ffffffff16565b9050600073ffffffffffffffffffffffffffffffffffffffff168873ffffffffffffffffffffffffffffffffffffffff16146128b857600080600084815260200190815260200160002060008a73ffffffffffffffffffffffffffffffffffffffff1673ffffffffffffffffffffffffffffffffffffffff1681526020019081526020016000205490508181101561286057888183856040517f03dee4c500000000000000000000000000000000000000000000000000000000815260040161285794939291906149e8565b60405180910390fd5b81810360008085815260200190815260200160002060008b73ffffffffffffffffffffffffffffffffffffffff1673ffffffffffffffffffffffffffffffffffffffff16815260200190815260200160002081905550505b600073ffffffffffffffffffffffffffffffffffffffff168773ffffffffffffffffffffffffffffffffffffffff1614612953578060008084815260200190815260200160002060008973ffffffffffffffffffffffffffffffffffffffff1673ffffffffffffffffffffffffffffffffffffffff168152602001908152602001600020600082825461294b9190614a2d565b925050819055505b5050806001019050612756565b506001835103612a1f57600061298060008561223990919063ffffffff16565b9050600061299860008561223990919063ffffffff16565b90508573ffffffffffffffffffffffffffffffffffffffff168773ffffffffffffffffffffffffffffffffffffffff168473ffffffffffffffffffffffffffffffffffffffff167fc3d58168c5ae7397731d063d5bbf3d657854427343f4c083240f7aacaa2d0f628585604051612a10929190613d87565b60405180910390a45050612a9e565b8373ffffffffffffffffffffffffffffffffffffffff168573ffffffffffffffffffffffffffffffffffffffff168273ffffffffffffffffffffffffffffffffffffffff167f4a39dc06d4c0dbc64b70af90fd698a233a518aa5d07e595d983b8c0526c8f7fb8686604051612a95929190614a61565b60405180910390a45b5050505050565b60008473ffffffffffffffffffffffffffffffffffffffff163b1115612c51578373ffffffffffffffffffffffffffffffffffffffff1663f23a6e6187878686866040518663ffffffff1660e01b8152600401612b06959493929190614aed565b6020604051808303816000875af1925050508015612b4257506040513d601f19601f82011682018060405250810190612b3f9190614b5c565b60015b612bc6573d8060008114612b72576040519150601f19603f3d011682016040523d82523d6000602084013e612b77565b606091505b506000815103612bbe57846040517f57f447ce000000000000000000000000000000000000000000000000000000008152600401612bb591906149cd565b60405180910390fd5b805181602001fd5b63f23a6e6160e01b7bffffffffffffffffffffffffffffffffffffffffffffffffffffffff1916817bffffffffffffffffffffffffffffffffffffffffffffffffffffffff191614612c4f57846040517f57f447ce000000000000000000000000000000000000000000000000000000008152600401612c4691906149cd565b60405180910390fd5b505b505050505050565b60008473ffffffffffffffffffffffffffffffffffffffff163b1115612e05578373ffffffffffffffffffffffffffffffffffffffff1663bc197c8187878686866040518663ffffffff1660e01b8152600401612cba959493929190614b89565b6020604051808303816000875af1925050508015612cf657506040513d601f19601f82011682018060405250810190612cf39190614b5c565b60015b612d7a573d8060008114612d26576040519150601f19603f3d011682016040523d82523d6000602084013e612d2b565b606091505b506000815103612d7257846040517f57f447ce000000000000000000000000000000000000000000000000000000008152600401612d6991906149cd565b60405180910390fd5b805181602001fd5b63bc197c8160e01b7bffffffffffffffffffffffffffffffffffffffffffffffffffffffff1916817bffffffffffffffffffffffffffffffffffffffffffffffffffffffff191614612e0357846040517f57f447ce000000000000000000000000000000000000000000000000000000008152600401612dfa91906149cd565b60405180910390fd5b505b505050505050565b60405180610140016040528060008152602001600073ffffffffffffffffffffffffffffffffffffffff16815260200160608152602001606081526020016060815260200160608152602001606081526020016000815260200160008152602001600081525090565b6000604051905090565b600080fd5b600080fd5b600073ffffffffffffffffffffffffffffffffffffffff82169050919050565b6000612eb582612e8a565b9050919050565b612ec581612eaa565b8114612ed057600080fd5b50565b600081359050612ee281612ebc565b92915050565b6000819050919050565b612efb81612ee8565b8114612f0657600080fd5b50565b600081359050612f1881612ef2565b92915050565b60008060408385031215612f3557612f34612e80565b5b6000612f4385828601612ed3565b9250506020612f5485828601612f09565b9150509250929050565b612f6781612ee8565b82525050565b6000602082019050612f826000830184612f5e565b92915050565b60007fffffffff0000000000000000000000000000000000000000000000000000000082169050919050565b612fbd81612f88565b8114612fc857600080fd5b50565b600081359050612fda81612fb4565b92915050565b600060208284031215612ff657612ff5612e80565b5b600061300484828501612fcb565b91505092915050565b60008115159050919050565b6130228161300d565b82525050565b600060208201905061303d6000830184613019565b92915050565b60006020828403121561305957613058612e80565b5b600061306784828501612f09565b91505092915050565b600081519050919050565b600082825260208201905092915050565b60005b838110156130aa57808201518184015260208101905061308f565b60008484015250505050565b6000601f19601f8301169050919050565b60006130d282613070565b6130dc818561307b565b93506130ec81856020860161308c565b6130f5816130b6565b840191505092915050565b6000602082019050818103600083015261311a81846130c7565b905092915050565b600080fd5b7f4e487b7100000000000000000000000000000000000000000000000000000000600052604160045260246000fd5b61315f826130b6565b810181811067ffffffffffffffff8211171561317e5761317d613127565b5b80604052505050565b6000613191612e76565b905061319d8282613156565b919050565b600067ffffffffffffffff8211156131bd576131bc613127565b5b602082029050602081019050919050565b600080fd5b60006131e66131e1846131a2565b613187565b90508083825260208201905060208402830185811115613209576132086131ce565b5b835b81811015613232578061321e8882612f09565b84526020840193505060208101905061320b565b5050509392505050565b600082601f83011261325157613250613122565b5b81356132618482602086016131d3565b91505092915050565b600080fd5b600067ffffffffffffffff82111561328a57613289613127565b5b613293826130b6565b9050602081019050919050565b82818337600083830152505050565b60006132c26132bd8461326f565b613187565b9050828152602081018484840111156132de576132dd61326a565b5b6132e98482856132a0565b509392505050565b600082601f83011261330657613305613122565b5b81356133168482602086016132af565b91505092915050565b600080600080600060a0868803121561333b5761333a612e80565b5b600061334988828901612ed3565b955050602061335a88828901612ed3565b945050604086013567ffffffffffffffff81111561337b5761337a612e85565b5b6133878882890161323c565b935050606086013567ffffffffffffffff8111156133a8576133a7612e85565b5b6133b48882890161323c565b925050608086013567ffffffffffffffff8111156133d5576133d4612e85565b5b6133e1888289016132f1565b9150509295509295909350565b600067ffffffffffffffff82111561340957613408613127565b5b602082029050602081019050919050565b600061342d613428846133ee565b613187565b905080838252602082019050602084028301858111156134505761344f6131ce565b5b835b8181101561347957806134658882612ed3565b845260208401935050602081019050613452565b5050509392505050565b600082601f83011261349857613497613122565b5b81356134a884826020860161341a565b91505092915050565b600080604083850312156134c8576134c7612e80565b5b600083013567ffffffffffffffff8111156134e6576134e5612e85565b5b6134f285828601613483565b925050602083013567ffffffffffffffff81111561351357613512612e85565b5b61351f8582860161323c565b9150509250929050565b600081519050919050565b600082825260208201905092915050565b6000819050602082019050919050565b61355e81612ee8565b82525050565b60006135708383613555565b60208301905092915050565b6000602082019050919050565b600061359482613529565b61359e8185613534565b93506135a983613545565b8060005b838110156135da5781516135c18882613564565b97506135cc8361357c565b9250506001810190506135ad565b5085935050505092915050565b600060208201905081810360008301526136018184613589565b905092915050565b600080604083850312156136205761361f612e80565b5b600061362e85828601612f09565b925050602061363f85828601612f09565b9150509250929050565b600067ffffffffffffffff82111561366457613663613127565b5b61366d826130b6565b9050602081019050919050565b600061368d61368884613649565b613187565b9050828152602081018484840111156136a9576136a861326a565b5b6136b48482856132a0565b509392505050565b600082601f8301126136d1576136d0613122565b5b81356136e184826020860161367a565b91505092915050565b600060208284031215613700576136ff612e80565b5b600082013567ffffffffffffffff81111561371e5761371d612e85565b5b61372a848285016136bc565b91505092915050565b600081519050919050565b600082825260208201905092915050565b6000819050602082019050919050565b61376881612eaa565b82525050565b600082825260208201905092915050565b600061378a82613070565b613794818561376e565b93506137a481856020860161308c565b6137ad816130b6565b840191505092915050565b6000610140830160008301516137d16000860182613555565b5060208301516137e4602086018261375f565b50604083015184820360408601526137fc828261377f565b91505060608301518482036060860152613816828261377f565b91505060808301518482036080860152613830828261377f565b91505060a083015184820360a086015261384a828261377f565b91505060c083015184820360c0860152613864828261377f565b91505060e083015161387960e0860182613555565b5061010083015161388e610100860182613555565b506101208301516138a3610120860182613555565b508091505092915050565b60006138ba83836137b8565b905092915050565b6000602082019050919050565b60006138da82613733565b6138e4818561373e565b9350836020820285016138f68561374f565b8060005b85811015613932578484038952815161391385826138ae565b945061391e836138c2565b925060208a019950506001810190506138fa565b50829750879550505050505092915050565b6000602082019050818103600083015261395e81846138cf565b905092915050565b61396f8161300d565b811461397a57600080fd5b50565b60008135905061398c81613966565b92915050565b600080604083850312156139a9576139a8612e80565b5b60006139b785828601612ed3565b92505060206139c88582860161397d565b9150509250929050565b600080600080600080600060e0888a0312156139f1576139f0612e80565b5b600088013567ffffffffffffffff811115613a0f57613a0e612e85565b5b613a1b8a828b016136bc565b975050602088013567ffffffffffffffff811115613a3c57613a3b612e85565b5b613a488a828b016136bc565b965050604088013567ffffffffffffffff811115613a6957613a68612e85565b5b613a758a828b016136bc565b955050606088013567ffffffffffffffff811115613a9657613a95612e85565b5b613aa28a828b016136bc565b945050608088013567ffffffffffffffff811115613ac357613ac2612e85565b5b613acf8a828b016136bc565b93505060a0613ae08a828b01612f09565b92505060c0613af18a828b01612f09565b91505092959891949750929550565b600061014083016000830151613b196000860182613555565b506020830151613b2c602086018261375f565b5060408301518482036040860152613b44828261377f565b91505060608301518482036060860152613b5e828261377f565b91505060808301518482036080860152613b78828261377f565b91505060a083015184820360a0860152613b92828261377f565b91505060c083015184820360c0860152613bac828261377f565b91505060e0830151613bc160e0860182613555565b50610100830151613bd6610100860182613555565b50610120830151613beb610120860182613555565b508091505092915050565b60006020820190508181036000830152613c108184613b00565b905092915050565b60008060408385031215613c2f57613c2e612e80565b5b6000613c3d85828601612ed3565b9250506020613c4e85828601612ed3565b9150509250929050565b600080600080600060a08688031215613c7457613c73612e80565b5b6000613c8288828901612ed3565b9550506020613c9388828901612ed3565b9450506040613ca488828901612f09565b9350506060613cb588828901612f09565b925050608086013567ffffffffffffffff811115613cd657613cd5612e85565b5b613ce2888289016132f1565b9150509295509295909350565b7f4e487b7100000000000000000000000000000000000000000000000000000000600052602260045260246000fd5b60006002820490506001821680613d3657607f821691505b602082108103613d4957613d48613cef565b5b50919050565b613d5881612eaa565b82525050565b6000604082019050613d736000830185613d4f565b613d806020830184613d4f565b9392505050565b6000604082019050613d9c6000830185612f5e565b613da96020830184612f5e565b9392505050565b7f4e487b7100000000000000000000000000000000000000000000000000000000600052603260045260246000fd5b7f455243313135353a2070726f6a65637420646f6573206e6f7420657869737400600082015250565b6000613e15601f8361307b565b9150613e2082613ddf565b602082019050919050565b60006020820190508181036000830152613e4481613e08565b9050919050565b7f455243313135353a20616d6f756e74206d75737420626520677265617465722060008201527f7468616e20300000000000000000000000000000000000000000000000000000602082015250565b6000613ea760268361307b565b9150613eb282613e4b565b604082019050919050565b60006020820190508181036000830152613ed681613e9a565b9050919050565b7f455243313135353a20616d6f756e74206d757374206265206c6573732074686160008201527f6e206f7220657175616c20746f20746865206e756d626572206f6620636f706960208201527f6573000000000000000000000000000000000000000000000000000000000000604082015250565b6000613f5f60428361307b565b9150613f6a82613edd565b606082019050919050565b60006020820190508181036000830152613f8e81613f52565b9050919050565b7f4e487b7100000000000000000000000000000000000000000000000000000000600052601160045260246000fd5b6000613fcf82612ee8565b9150613fda83612ee8565b9250828202613fe881612ee8565b91508282048414831517613fff57613ffe613f95565b5b5092915050565b7f455243313135353a20696e73756666696369656e742066756e64730000000000600082015250565b600061403c601b8361307b565b915061404782614006565b602082019050919050565b6000602082019050818103600083015261406b8161402f565b9050919050565b600061407d82612ee8565b915061408883612ee8565b92508282039050818111156140a05761409f613f95565b5b92915050565b600081905092915050565b50565b60006140c16000836140a6565b91506140cc826140b1565b600082019050919050565b60006140e2826140b4565b9150819050919050565b7f5472616e73666572206661696c65642e00000000000000000000000000000000600082015250565b600061412260108361307b565b915061412d826140ec565b602082019050919050565b6000602082019050818103600083015261415181614115565b9050919050565b600060608201905061416d6000830186613d4f565b61417a6020830185612f5e565b6141876040830184612f5e565b949350505050565b600081905092915050565b60006141a582613070565b6141af818561418f565b93506141bf81856020860161308c565b80840191505092915050565b60006141d7828461419a565b915081905092915050565b60008190508160005260206000209050919050565b6000815461420481613d1e565b61420e818661418f565b94506001821660008114614229576001811461423e57614271565b60ff1983168652811515820286019350614271565b614247856141e2565b60005b838110156142695781548189015260018201915060208101905061424a565b838801955050505b50505092915050565b600061428682846141f7565b915081905092915050565b7f4e487b7100000000000000000000000000000000000000000000000000000000600052601260045260246000fd5b60006142cb82612ee8565b91506142d683612ee8565b9250826142e6576142e5614291565b5b828204905092915050565b7f455243313135353a206d696e7420746f20746865207a65726f2061646472657360008201527f7300000000000000000000000000000000000000000000000000000000000000602082015250565b600061434d60218361307b565b9150614358826142f1565b604082019050919050565b6000602082019050818103600083015261437c81614340565b9050919050565b7f455243313135353a206e756d626572206f6620636f70696573206d757374206260008201527f652067726561746572207468616e203000000000000000000000000000000000602082015250565b60006143df60308361307b565b91506143ea82614383565b604082019050919050565b6000602082019050818103600083015261440e816143d2565b9050919050565b7f455243313135353a206e756d626572206f6620636f70696573206d757374206260008201527f65206c657373207468616e206f7220657175616c20746f203730000000000000602082015250565b6000614471603a8361307b565b915061447c82614415565b604082019050919050565b600060208201905081810360008301526144a081614464565b9050919050565b7f455243313135353a207072696365206f66207468652070726f6a656374206d7560008201527f73742062652067726561746572207468616e2030000000000000000000000000602082015250565b600061450360348361307b565b915061450e826144a7565b604082019050919050565b60006020820190508181036000830152614532816144f6565b9050919050565b7f455243313135353a207072696365206f66207468652070726f6a656374206d7560008201527f7374206265206c657373207468616e206f7220657175616c20746f2031360000602082015250565b6000614595603e8361307b565b91506145a082614539565b604082019050919050565b600060208201905081810360008301526145c481614588565b9050919050565b7f455243313135353a206e756d626572206f662070726f6a65637473206d75737460008201527f206265206c657373207468616e20313030300000000000000000000000000000602082015250565b600061462760328361307b565b9150614632826145cb565b604082019050919050565b600060208201905081810360008301526146568161461a565b9050919050565b60006020601f8301049050919050565b600082821b905092915050565b6000600883026146aa7fffffffffffffffffffffffffffffffffffffffffffffffffffffffffffffffff8261466d565b6146b4868361466d565b95508019841693508086168417925050509392505050565b6000819050919050565b60006146f16146ec6146e784612ee8565b6146cc565b612ee8565b9050919050565b6000819050919050565b61470b836146d6565b61471f614717826146f8565b84845461467a565b825550505050565b600090565b614734614727565b61473f818484614702565b505050565b5b818110156147635761475860008261472c565b600181019050614745565b5050565b601f8211156147a857614779816141e2565b6147828461465d565b81016020851015614791578190505b6147a561479d8561465d565b830182614744565b50505b505050565b600082821c905092915050565b60006147cb600019846008026147ad565b1980831691505092915050565b60006147e483836147ba565b9150826002028217905092915050565b6147fd82613070565b67ffffffffffffffff81111561481657614815613127565b5b6148208254613d1e565b61482b828285614767565b600060209050601f83116001811461485e576000841561484c578287015190505b61485685826147d8565b8655506148be565b601f19841661486c866141e2565b60005b828110156148945784890151825560018201915060208501945060208101905061486f565b868310156148b157848901516148ad601f8916826147ba565b8355505b6001600288020188555050505b505050505050565b6000610140820190506148dc600083018d612f5e565b6148e9602083018c613d4f565b81810360408301526148fb818b6130c7565b9050818103606083015261490f818a6130c7565b9050818103608083015261492381896130c7565b905081810360a083015261493781886130c7565b905081810360c083015261494b81876130c7565b905061495a60e0830186612f5e565b614968610100830185612f5e565b614976610120830184612f5e565b9b9a5050505050505050505050565b600061499082612ee8565b91507fffffffffffffffffffffffffffffffffffffffffffffffffffffffffffffffff82036149c2576149c1613f95565b5b600182019050919050565b60006020820190506149e26000830184613d4f565b92915050565b60006080820190506149fd6000830187613d4f565b614a0a6020830186612f5e565b614a176040830185612f5e565b614a246060830184612f5e565b95945050505050565b6000614a3882612ee8565b9150614a4383612ee8565b9250828201905080821115614a5b57614a5a613f95565b5b92915050565b60006040820190508181036000830152614a7b8185613589565b90508181036020830152614a8f8184613589565b90509392505050565b600081519050919050565b600082825260208201905092915050565b6000614abf82614a98565b614ac98185614aa3565b9350614ad981856020860161308c565b614ae2816130b6565b840191505092915050565b600060a082019050614b026000830188613d4f565b614b0f6020830187613d4f565b614b1c6040830186612f5e565b614b296060830185612f5e565b8181036080830152614b3b8184614ab4565b90509695505050505050565b600081519050614b5681612fb4565b92915050565b600060208284031215614b7257614b71612e80565b5b6000614b8084828501614b47565b91505092915050565b600060a082019050614b9e6000830188613d4f565b614bab6020830187613d4f565b8181036040830152614bbd8186613589565b90508181036060830152614bd18185613589565b90508181036080830152614be58184614ab4565b9050969550505050505056fea264697066735822122035fca1c1bf657a8eae0ec6eba62f6d880e8b2eb177cc4654a4ebd19e153bc11164736f6c6343000818003368747470733a2f2f736f6e67637265772e636f6d2f6170692f70726f6a6563742f7b69647d2e6a736f6e",
  "linkReferences": {},
  "deployedLinkReferences": {}
}